:08000000803102288731F32F43
:10087200853197258431392C80310228640080012A
:100882000131890B402C0034F401F501701C4A2C13
:100892004B2C4F2C7208F4077308F53D0130F235EA
:1008A200F30D890B502C0130F136F00C890B552CCD
:1008B20070087104031D5E2C5F2C472C7508F10033
:1008C2007408F0000800F601F31F682C692C702CE4
:1008D200F209F309F20A0319F30AF601F60AF11F03
:1008E200732C742C792CF009F109F00A0319F10A1E
:1008F2007008710403197E2C7F2CA82CF501F50ACF
:100902008B2C0130F035F10D890B832C0130F40072
:100912007408F507F11F8E2C8F2C822C710873023C
:10092200031D952C70087202031C982C992C9D2C87
:100932007008F2027108F33B0130F136F00C890BBA
:100942009E2C0130F502031DA72CA82C8F2C7608B3
:100952000319AC2CAD2CB22CF209F309F20A0319DB
:10096200F30A7308F1007208F0000800F601F11FA3
:10097200BB2CBC2CC32CF009F109F00A0319F10AB3
:10098200F601F60AF31FC62CC72CD02CF209F30984
:10099200F20A0319F30A0130F4007408F606F701AB
:1009A200F801700871040319D72CD82C072DF50112
:1009B200F50AE42C0130F035F10D890BDC2C013005
:1009C200F4007408F507F11FE72CE82CDB2C01304A
:1009D200F735F80D890BE92C71087302031DF32C0E
:1009E20070087202031CF62CF72CFC2C7008F20221
:1009F2007108F33B77140130F136F00C890BFD2CB2
:100A02000130F502031D062D072DE82C7608031987
:100A12000B2D0C2D112DF709F809F70A0319F80A05
:100A22007808F1007708F0000800712D22000E14FA
:100A32008E140E158E150E168E160E13962D22007E
:100A42000E108E140E158E110E128E120E13962D7E
:100A520022000E148E140E118E150E168E120E1703
:100A6200962D22000E148E140E158E150E128E1255
:100A72000E17962D22000E108E140E158E110E12C8
:100A82008E160E17962D22000E148E100E158E1530
:100A92000E128E160E17962D22000E148E100E15A3
:100AA2008E150E168E160E17962D22000E148E140B
:100AB2000E158E110E128E120E13962D22000E148A
:100AC2008E140E158E150E168E160E17962D2200EA
:100AD2000E148E140E158E150E128E160E17962DDE
:100AE2007108003A0319762D962D7008003A031901
:100AF200172D013A0319202D033A0319292D013A22
:100B02000319322D073A03193B2D013A0319442DDB
:100B1200033A03194D2D013A0319562D0F3A0319C1
:100B22005F2D013A0319682D962D080021000E1041
:100B32008E100E118E110E128E120E138C01FF30BA
:100B42008D00FF308F0023008C018D018F01220068
:100B52000C158C140C1420000F080F39F900FA013F
:100B62007908B3007A08B4000F08F9000430F936A6
:100B7200890BB82D79080F39FA00FB017A08B10008
:100B82007B08B2000D1CC62DC72D492E3108330734
:100B9200A2003208343DA3006430F0000030F100BE
:100BA2002308F3002208F2008431B724853171084A
:100BB2002000A5007008A4006430F0000030F100AD
:100BC2002308F3002208F20084316424853171087D
:100BD2002000A1007008A0000A30F0000030F100EF
:100BE2002108F3002008F2008431B724853171080E
:100BF2002000A7007008A6000A30F0000030F100C3
:100C02002108F3002008F200843164248531710840
:100C12002000A9007008A80022000C118C140C14EA
:100C220020002908F1002808F000853116258531B9
:100C32000730F9007D30890B1C2EF90B1C2E0000A9
:100C420022000C158C100C1420002708F100260835
:100C5200F0008531162585310730F9007D30890B8A
:100C6200302EF90B302E000022000C158C140C10C3
:100C720020002508F1002408F00085311625853171
:100C82000730F9007D30890B442EF90B442E000009
:100C920020008D1C4D2E4E2ED02E31083302A20084
:100CA2003208343BA3006430F0000030F100230826
:100CB200F3002208F2008431B72485317108200044
:100CC200A5007008A4006430F0000030F100230891
:100CD200F3002208F2008431642485317108200077
:100CE200A1007008A0000A30F0000030F1002108D5
:100CF200F3002008F2008431B72485317108200006
:100D0200A7007008A6000A30F0000030F1002108A8
:100D1200F3002008F2008431642485317108200038
:100D2200A9007008A80022000C118C140C142000D9
:100D32002908F1002808F000853116258531073091
:100D4200F9007D30890BA32EF90BA32E000022009F
:100D52000C158C100C1420002708F1002608F00056
:100D62008531162585310730F9007D30890BB72E84
:100D7200F90BB72E000022000C158C140C10200069
:100D82002508F1002408F000853116258531073049
:100D9200F9007D30890BCB2EF90BCB2E0000200001
:100DA2000D1DD42ED52E612F3408F1003308F0002A
:100DB2003208F3003108F20084314524853171088C
:100DC2002000A3007008A2006430F0000030F1009F
:100DD2002308F3002208F2008431B7248531710818
:100DE2002000A5007008A4006430F0000030F1007B
:100DF2002308F3002208F20084316424853171084B
:100E02002000A1007008A0000A30F0000030F100BC
:100E12002108F3002008F2008431B72485317108DB
:100E22002000A7007008A6000A30F0000030F10090
:100E32002108F3002008F20084316424853171080E
:100E42002000A9007008A80022000C118C140C14B8
:100E520020002908F1002808F00085311625853187
:100E62000730F9007D30890B342FF90B342F000045
:100E720022000C158C100C1420002708F100260803
:100E8200F0008531162585310730F9007D30890B58
:100E9200482FF90B482F000022000C158C140C105F
:100EA20020002508F1002408F0008531162585313F
:100EB2000730F9007D30890B5C2FF90B5C2F0000A5
:100EC20020008D1D652F662FF22F3208F1003108A8
:100ED200F0003408F3003308F2008431B72485317E
:100EE20071082000A3007008A2006430F0000030F6
:100EF200F1002308F3002208F2008431B72485317F
:100F020071082000A5007008A4006430F0000030D1
:100F1200F1002308F3002208F200843164248531B1
:100F220071082000A1007008A0000A30F000003013
:100F3200F1002108F3002008F2008431B724853142
:100F420071082000A7007008A6000A30F0000030E7
:100F5200F1002108F3002008F20084316424853175
:100F620071082000A9007008A80022000C118C143E
:100F72000C1420002908F1002808F00085311625FC
:100F820085310730F9007D30890BC52FF90BC52F4C
:100F9200000022000C158C100C1420002708F10010
:100FA2002608F0008531162585310730F9007D309D
:100FB200890BD92FF90BD92F000022000C158C14A4
:100FC2000C1020002508F1002408F00085311625B8
:100FD20085310730F9007D30890BED2FF90BED2FAC
:100FE20000000800FC01FD01203084000030850073
:100FF200113084313F24873120008431392C01346F
:021002000034B8
:020000040001F9
:04000E00E23FFF3E90
:00000001FF
